{
  "contractName": "Flipcoin",
  "abi": [
    {
      "constant": true,
      "inputs": [],
      "name": "consecutiveWins",
      "outputs": [
        {
          "name": "",
          "type": "uint256"
        }
      ],
      "payable": false,
      "stateMutability": "view",
      "type": "function",
      "signature": "0xe6f334d7"
    },
    {
      "inputs": [],
      "payable": false,
      "stateMutability": "nonpayable",
      "type": "constructor",
      "signature": "constructor"
    },
    {
      "constant": false,
      "inputs": [
        {
          "name": "_guess",
          "type": "bool"
        }
      ],
      "name": "flip",
      "outputs": [
        {
          "name": "",
          "type": "bool"
        }
      ],
      "payable": false,
      "stateMutability": "nonpayable",
      "type": "function",
      "signature": "0x1d263f67"
    }
  ],
  "bytecode": "0x60806040527f800000000000000000000000000000000000000000000000000000000000000060025534801561003457600080fd5b50600080819055506103c38061004b6000396000f3fe60806040526004361061004c576000357c0100000000000000000000000000000000000000000000000000000000900463ffffffff1680631d263f6714610051578063e6f334d7146100a6575b600080fd5b34801561005d57600080fd5b5061008c6004803603602081101561007457600080fd5b810190808035151590602001909291905050506100d1565b604051808215151515815260200191505060405180910390f35b3480156100b257600080fd5b506100bb610171565b6040518082815260200191505060405180910390f35b6000806100e860014361017790919063ffffffff16565b406001900490508060015414156100fe57600080fd5b80600181905550600061011c600254836101c190919063ffffffff16565b905060006001821461012f576000610132565b60015b9050841515811515141561015d5760008081548092919060010191905055506001935050505061016c565b60008081905550600093505050505b919050565b60005481565b60006101b983836040805190810160405280601e81526020017f536166654d6174683a207375627472616374696f6e206f766572666c6f77000081525061020b565b905092915050565b600061020383836040805190810160405280601a81526020017f536166654d6174683a206469766973696f6e206279207a65726f0000000000008152506102cd565b905092915050565b600083831115829015156102ba576040517f08c379a00000000000000000000000000000000000000000000000000000000081526004018080602001828103825283818151815260200191508051906020019080838360005b8381101561027f578082015181840152602081019050610264565b50505050905090810190601f1680156102ac5780820380516001836020036101000a031916815260200191505b509250505060405180910390fd5b5060008385039050809150509392505050565b60008083118290151561037b576040517f08c379a00000000000000000000000000000000000000000000000000000000081526004018080602001828103825283818151815260200191508051906020019080838360005b83811015610340578082015181840152602081019050610325565b50505050905090810190601f16801561036d5780820380516001836020036101000a031916815260200191505b509250505060405180910390fd5b506000838581151561038957fe5b04905080915050939250505056fea165627a7a723058201e6897ce7ba04c71935487fc9f0299e575ea70e2ad99d1e1102fe1af9b8b77690029",
  "source": "pragma solidity 0.5.0;\n\nimport \"./SafeMath.sol\";\n\ncontract Coinflip {\n    using SafeMath for uint256;\n    uint256 public consecutiveWins;\n    uint256 lastHash;\n    uint256 FACTOR = 57896044618658097711785492504343953926634992332820282019728792003956564819968;\n\n    constructor() public {\n        consecutiveWins = 0;\n    }\n\n    function flip(bool _guess) public returns (bool) {\n        uint256 blockValue = uint256(blockhash(block.number.sub(1)));\n\n        if (lastHash == blockValue) {\n            revert();\n        }\n\n        lastHash = blockValue;\n        uint256 coinflip = blockValue.div(FACTOR);\n        bool side = coinflip == 1 ? true : false;\n\n        if (side == _guess) {\n            consecutiveWins++;\n            return true;\n        } else {\n            consecutiveWins = 0;\n            return false;\n        }\n    }\n\n}",
  "sourcePath": "/Users/cherrybluemoon/Coinflip/contracts/Flipcoin.sol",
  "compiler": {
    "name": "solc",
    "version": "0.5.0+commit.1d4f565a.Emscripten.clang"
  },
  "schemaVersion": "3.0.6",
  "updatedAt": "2020-05-11T07:45:17.536Z",
  "devdoc": {
    "methods": {}
  },
  "userdoc": {
    "methods": {}
  }
}